{
    "_format": "hh-sol-artifact-1",
    "contractName": "Blitter",
    "sourceName": "contracts/Blitter.sol",
    "abi": [
        {
            "inputs": [],
            "stateMutability": "nonpayable",
            "type": "constructor"
        },
        {
            "inputs": [],
            "name": "BleetContentMaxLength",
            "type": "error"
        },
        {
            "anonymous": false,
            "inputs": [
                {
                    "indexed": false,
                    "internalType": "uint256",
                    "name": "id",
                    "type": "uint256"
                },
                {
                    "indexed": false,
                    "internalType": "address",
                    "name": "author",
                    "type": "address"
                },
                {
                    "indexed": false,
                    "internalType": "bytes32[]",
                    "name": "hashtags",
                    "type": "bytes32[]"
                },
                {
                    "indexed": false,
                    "internalType": "bytes32",
                    "name": "gif",
                    "type": "bytes32"
                },
                {
                    "indexed": false,
                    "internalType": "bytes",
                    "name": "content",
                    "type": "bytes"
                }
            ],
            "name": "BleetCreated",
            "type": "event"
        },
        {
            "anonymous": false,
            "inputs": [
                {
                    "indexed": false,
                    "internalType": "uint256",
                    "name": "id",
                    "type": "uint256"
                },
                {
                    "indexed": false,
                    "internalType": "address",
                    "name": "from",
                    "type": "address"
                },
                {
                    "indexed": false,
                    "internalType": "uint256",
                    "name": "amount",
                    "type": "uint256"
                }
            ],
            "name": "BleetTipped",
            "type": "event"
        },
        {
            "anonymous": false,
            "inputs": [
                {
                    "indexed": true,
                    "internalType": "address",
                    "name": "previousOwner",
                    "type": "address"
                },
                {
                    "indexed": true,
                    "internalType": "address",
                    "name": "newOwner",
                    "type": "address"
                }
            ],
            "name": "OwnershipTransferred",
            "type": "event"
        },
        {
            "anonymous": false,
            "inputs": [
                {
                    "indexed": false,
                    "internalType": "address",
                    "name": "user",
                    "type": "address"
                },
                {
                    "indexed": false,
                    "internalType": "bytes32",
                    "name": "oldUsername",
                    "type": "bytes32"
                },
                {
                    "indexed": false,
                    "internalType": "bytes32",
                    "name": "newUsername",
                    "type": "bytes32"
                }
            ],
            "name": "UsernameChanged",
            "type": "event"
        },
        {
            "inputs": [
                {
                    "internalType": "address",
                    "name": "",
                    "type": "address"
                }
            ],
            "name": "balance",
            "outputs": [
                {
                    "internalType": "uint256",
                    "name": "",
                    "type": "uint256"
                }
            ],
            "stateMutability": "view",
            "type": "function"
        },
        {
            "inputs": [
                {
                    "internalType": "uint256",
                    "name": "",
                    "type": "uint256"
                }
            ],
            "name": "bleets",
            "outputs": [
                {
                    "internalType": "address",
                    "name": "author",
                    "type": "address"
                },
                {
                    "internalType": "bytes32",
                    "name": "gif",
                    "type": "bytes32"
                },
                {
                    "internalType": "uint256",
                    "name": "earnings",
                    "type": "uint256"
                },
                {
                    "internalType": "bytes",
                    "name": "content",
                    "type": "bytes"
                }
            ],
            "stateMutability": "view",
            "type": "function"
        },
        {
            "inputs": [],
            "name": "getBleets",
            "outputs": [
                {
                    "components": [
                        {
                            "internalType": "address",
                            "name": "author",
                            "type": "address"
                        },
                        {
                            "internalType": "bytes32[]",
                            "name": "hashtags",
                            "type": "bytes32[]"
                        },
                        {
                            "internalType": "bytes32",
                            "name": "gif",
                            "type": "bytes32"
                        },
                        {
                            "internalType": "uint256",
                            "name": "earnings",
                            "type": "uint256"
                        },
                        {
                            "internalType": "bytes",
                            "name": "content",
                            "type": "bytes"
                        }
                    ],
                    "internalType": "struct Blitter.Bleet[]",
                    "name": "",
                    "type": "tuple[]"
                }
            ],
            "stateMutability": "view",
            "type": "function"
        },
        {
            "inputs": [
                {
                    "internalType": "bytes32",
                    "name": "hashtag",
                    "type": "bytes32"
                }
            ],
            "name": "getHashtagBleets",
            "outputs": [
                {
                    "internalType": "uint256[]",
                    "name": "",
                    "type": "uint256[]"
                }
            ],
            "stateMutability": "view",
            "type": "function"
        },
        {
            "inputs": [
                {
                    "internalType": "address",
                    "name": "userAddress",
                    "type": "address"
                }
            ],
            "name": "getUserBleets",
            "outputs": [
                {
                    "internalType": "uint256[]",
                    "name": "",
                    "type": "uint256[]"
                }
            ],
            "stateMutability": "view",
            "type": "function"
        },
        {
            "inputs": [
                {
                    "internalType": "bytes32",
                    "name": "",
                    "type": "bytes32"
                },
                {
                    "internalType": "uint256",
                    "name": "",
                    "type": "uint256"
                }
            ],
            "name": "hashtags",
            "outputs": [
                {
                    "internalType": "uint256",
                    "name": "",
                    "type": "uint256"
                }
            ],
            "stateMutability": "view",
            "type": "function"
        },
        {
            "inputs": [
                {
                    "internalType": "bytes32[]",
                    "name": "_hashtags",
                    "type": "bytes32[]"
                },
                {
                    "internalType": "bytes32",
                    "name": "_gif",
                    "type": "bytes32"
                },
                {
                    "internalType": "bytes",
                    "name": "_content",
                    "type": "bytes"
                }
            ],
            "name": "newBleet",
            "outputs": [],
            "stateMutability": "nonpayable",
            "type": "function"
        },
        {
            "inputs": [],
            "name": "owner",
            "outputs": [
                {
                    "internalType": "address",
                    "name": "",
                    "type": "address"
                }
            ],
            "stateMutability": "view",
            "type": "function"
        },
        {
            "inputs": [],
            "name": "renounceOwnership",
            "outputs": [],
            "stateMutability": "nonpayable",
            "type": "function"
        },
        {
            "inputs": [
                {
                    "internalType": "bytes32",
                    "name": "_username",
                    "type": "bytes32"
                }
            ],
            "name": "setUsername",
            "outputs": [],
            "stateMutability": "nonpayable",
            "type": "function"
        },
        {
            "inputs": [
                {
                    "internalType": "uint256",
                    "name": "id",
                    "type": "uint256"
                }
            ],
            "name": "tip",
            "outputs": [],
            "stateMutability": "payable",
            "type": "function"
        },
        {
            "inputs": [
                {
                    "internalType": "address",
                    "name": "newOwner",
                    "type": "address"
                }
            ],
            "name": "transferOwnership",
            "outputs": [],
            "stateMutability": "nonpayable",
            "type": "function"
        },
        {
            "inputs": [
                {
                    "internalType": "address",
                    "name": "",
                    "type": "address"
                },
                {
                    "internalType": "uint256",
                    "name": "",
                    "type": "uint256"
                }
            ],
            "name": "userBleets",
            "outputs": [
                {
                    "internalType": "uint256",
                    "name": "",
                    "type": "uint256"
                }
            ],
            "stateMutability": "view",
            "type": "function"
        },
        {
            "inputs": [
                {
                    "internalType": "address",
                    "name": "",
                    "type": "address"
                }
            ],
            "name": "usernames",
            "outputs": [
                {
                    "internalType": "bytes32",
                    "name": "",
                    "type": "bytes32"
                }
            ],
            "stateMutability": "view",
            "type": "function"
        }
    ],
    "bytecode": "0x608060405234801561001057600080fd5b5061002d61002261003260201b60201c565b61003a60201b60201c565b6100fe565b600033905090565b60008060009054906101000a900473ffffffffffffffffffffffffffffffffffffffff169050816000806101000a81548173ffffffffffffffffffffffffffffffffffffffff021916908373ffffffffffffffffffffffffffffffffffffffff1602179055508173ffffffffffffffffffffffffffffffffffffffff168173ffffffffffffffffffffffffffffffffffffffff167f8be0079c531659141344cd1fd0a4f28419497f9722a3daafe3b4186f6b6457e060405160405180910390a35050565b611c948061010d6000396000f3fe6080604052600436106100dd5760003560e01c80638da5cb5b1161007f578063e3d670d711610059578063e3d670d7146102d5578063e8b69bc314610312578063ee91877c1461032e578063f2fde38b1461036b576100dd565b80638da5cb5b146102425780639337f2fc1461026d578063dc63eda914610298576100dd565b8063558710d1116100bb578063558710d1146101715780635c6fdf70146101ae578063715018a6146101eb57806388e9339414610202576100dd565b80630186e4fa146100e25780633157506a1461011f5780633787dea914610148575b600080fd5b3480156100ee57600080fd5b506101096004803603810190610104919061106d565b610394565b60405161011691906110bc565b60405180910390f35b34801561012b57600080fd5b506101466004803603810190610141919061110d565b6103c5565b005b34801561015457600080fd5b5061016f600480360381019061016a91906112e0565b610497565b005b34801561017d57600080fd5b5061019860048036038101906101939190611370565b61074b565b6040516101a591906110bc565b60405180910390f35b3480156101ba57600080fd5b506101d560048036038101906101d0919061110d565b61077c565b6040516101e2919061146e565b60405180910390f35b3480156101f757600080fd5b506102006107e7565b005b34801561020e57600080fd5b5061022960048036038101906102249190611490565b61086f565b6040516102399493929190611563565b60405180910390f35b34801561024e57600080fd5b50610257610957565b60405161026491906115af565b60405180910390f35b34801561027957600080fd5b50610282610980565b60405161028f9190611820565b60405180910390f35b3480156102a457600080fd5b506102bf60048036038101906102ba9190611842565b610b33565b6040516102cc919061146e565b60405180910390f35b3480156102e157600080fd5b506102fc60048036038101906102f79190611842565b610bca565b60405161030991906110bc565b60405180910390f35b61032c60048036038101906103279190611490565b610be2565b005b34801561033a57600080fd5b5061035560048036038101906103509190611842565b610cdc565b604051610362919061186f565b60405180910390f35b34801561037757600080fd5b50610392600480360381019061038d9190611842565b610cf4565b005b600360205281600052604060002081815481106103b057600080fd5b90600052602060002001600091509150505481565b6000600560003373ffffffffffffffffffffffffffffffffffffffff1673ffffffffffffffffffffffffffffffffffffffff1681526020019081526020016000205490506000801b811461044f577f782c56d61b92ef3cb20f87c3580d65f9951db2df9639e59fb8e8c20bcfe3000f3382846040516104469392919061188a565b60405180910390a15b81600560003373ffffffffffffffffffffffffffffffffffffffff1673ffffffffffffffffffffffffffffffffffffffff168152602001908152602001600020819055505050565b610100815111156104d4576040517fabd1941100000000000000000000000000000000000000000000000000000000815260040160405180910390fd5b60016040518060a001604052803373ffffffffffffffffffffffffffffffffffffffff168152602001868680806020026020016040519081016040528093929190818152602001838360200280828437600081840152601f19601f8201169050808301925050505050505081526020018481526020016000815260200183815250908060018154018082558091505060019003906000526020600020906005020160009091909190915060008201518160000160006101000a81548173ffffffffffffffffffffffffffffffffffffffff021916908373ffffffffffffffffffffffffffffffffffffffff16021790555060208201518160010190805190602001906105e1929190610eb8565b5060408201518160020155606082015181600301556080820151816004019080519060200190610612929190610f05565b50505060006001808054905061062891906118f0565b905060005b8585905081101561069c576002600087878481811061064f5761064e611924565b5b9050602002013581526020019081526020016000208290806001815401808255809150506001900390600052602060002001600090919091909150558061069590611953565b905061062d565b50600360003373ffffffffffffffffffffffffffffffffffffffff1673ffffffffffffffffffffffffffffffffffffffff1681526020019081526020016000208190806001815401808255809150506001900390600052602060002001600090919091909150557fcd3ba157decaad9062f22147f9364f233fa0df9b4b0278489306e363e24f63c181338787878760405161073c96959493929190611a0e565b60405180910390a15050505050565b6002602052816000526040600020818154811061076757600080fd5b90600052602060002001600091509150505481565b6060600260008381526020019081526020016000208054806020026020016040519081016040528092919081815260200182805480156107db57602002820191906000526020600020905b8154815260200190600101908083116107c7575b50505050509050919050565b6107ef610dec565b73ffffffffffffffffffffffffffffffffffffffff1661080d610957565b73ffffffffffffffffffffffffffffffffffffffff1614610863576040517f08c379a000000000000000000000000000000000000000000000000000000000815260040161085a90611ace565b60405180910390fd5b61086d6000610df4565b565b6001818154811061087f57600080fd5b90600052602060002090600502016000915090508060000160009054906101000a900473ffffffffffffffffffffffffffffffffffffffff16908060020154908060030154908060040180546108d490611b1d565b80601f016020809104026020016040519081016040528092919081815260200182805461090090611b1d565b801561094d5780601f106109225761010080835404028352916020019161094d565b820191906000526020600020905b81548152906001019060200180831161093057829003601f168201915b5050505050905084565b60008060009054906101000a900473ffffffffffffffffffffffffffffffffffffffff16905090565b60606001805480602002602001604051908101604052809291908181526020016000905b82821015610b2a57838290600052602060002090600502016040518060a00160405290816000820160009054906101000a900473ffffffffffffffffffffffffffffffffffffffff1673ffffffffffffffffffffffffffffffffffffffff1673ffffffffffffffffffffffffffffffffffffffff16815260200160018201805480602002602001604051908101604052809291908181526020018280548015610a6c57602002820191906000526020600020905b815481526020019060010190808311610a58575b505050505081526020016002820154815260200160038201548152602001600482018054610a9990611b1d565b80601f0160208091040260200160405190810160405280929190818152602001828054610ac590611b1d565b8015610b125780601f10610ae757610100808354040283529160200191610b12565b820191906000526020600020905b815481529060010190602001808311610af557829003601f168201915b505050505081525050815260200190600101906109a4565b50505050905090565b6060600360008373ffffffffffffffffffffffffffffffffffffffff1673ffffffffffffffffffffffffffffffffffffffff168152602001908152602001600020805480602002602001604051908101604052809291908181526020018280548015610bbe57602002820191906000526020600020905b815481526020019060010190808311610baa575b50505050509050919050565b60046020528060005260406000206000915090505481565b600060018281548110610bf857610bf7611924565b5b906000526020600020906005020160000160009054906101000a900473ffffffffffffffffffffffffffffffffffffffff1673ffffffffffffffffffffffffffffffffffffffff1634604051610c4d90611b80565b60006040518083038185875af1925050503d8060008114610c8a576040519150601f19603f3d011682016040523d82523d6000602084013e610c8f565b606091505b5050905080610c9d57600080fd5b7fdee74fe34df75562a679119bfe3600566d381b4d5647028e65498a4aed977adc823334604051610cd093929190611b95565b60405180910390a15050565b60056020528060005260406000206000915090505481565b610cfc610dec565b73ffffffffffffffffffffffffffffffffffffffff16610d1a610957565b73ffffffffffffffffffffffffffffffffffffffff1614610d70576040517f08c379a0000000000000000000000000000000000000000000000000000000008152600401610d6790611ace565b60405180910390fd5b600073ffffffffffffffffffffffffffffffffffffffff168173ffffffffffffffffffffffffffffffffffffffff161415610de0576040517f08c379a0000000000000000000000000000000000000000000000000000000008152600401610dd790611c3e565b60405180910390fd5b610de981610df4565b50565b600033905090565b60008060009054906101000a900473ffffffffffffffffffffffffffffffffffffffff169050816000806101000a81548173ffffffffffffffffffffffffffffffffffffffff021916908373ffffffffffffffffffffffffffffffffffffffff1602179055508173ffffffffffffffffffffffffffffffffffffffff168173ffffffffffffffffffffffffffffffffffffffff167f8be0079c531659141344cd1fd0a4f28419497f9722a3daafe3b4186f6b6457e060405160405180910390a35050565b828054828255906000526020600020908101928215610ef4579160200282015b82811115610ef3578251825591602001919060010190610ed8565b5b509050610f019190610f8b565b5090565b828054610f1190611b1d565b90600052602060002090601f016020900481019282610f335760008555610f7a565b82601f10610f4c57805160ff1916838001178555610f7a565b82800160010185558215610f7a579182015b82811115610f79578251825591602001919060010190610f5e565b5b509050610f879190610fa8565b5090565b5b80821115610fa4576000816000905550600101610f8c565b5090565b5b80821115610fc1576000816000905550600101610fa9565b5090565b6000604051905090565b600080fd5b600080fd5b600073ffffffffffffffffffffffffffffffffffffffff82169050919050565b600061100482610fd9565b9050919050565b61101481610ff9565b811461101f57600080fd5b50565b6000813590506110318161100b565b92915050565b6000819050919050565b61104a81611037565b811461105557600080fd5b50565b60008135905061106781611041565b92915050565b6000806040838503121561108457611083610fcf565b5b600061109285828601611022565b92505060206110a385828601611058565b9150509250929050565b6110b681611037565b82525050565b60006020820190506110d160008301846110ad565b92915050565b6000819050919050565b6110ea816110d7565b81146110f557600080fd5b50565b600081359050611107816110e1565b92915050565b60006020828403121561112357611122610fcf565b5b6000611131848285016110f8565b91505092915050565b600080fd5b600080fd5b600080fd5b60008083601f84011261115f5761115e61113a565b5b8235905067ffffffffffffffff81111561117c5761117b61113f565b5b60208301915083602082028301111561119857611197611144565b5b9250929050565b600080fd5b6000601f19601f8301169050919050565b7f4e487b7100000000000000000000000000000000000000000000000000000000600052604160045260246000fd5b6111ed826111a4565b810181811067ffffffffffffffff8211171561120c5761120b6111b5565b5b80604052505050565b600061121f610fc5565b905061122b82826111e4565b919050565b600067ffffffffffffffff82111561124b5761124a6111b5565b5b611254826111a4565b9050602081019050919050565b82818337600083830152505050565b600061128361127e84611230565b611215565b90508281526020810184848401111561129f5761129e61119f565b5b6112aa848285611261565b509392505050565b600082601f8301126112c7576112c661113a565b5b81356112d7848260208601611270565b91505092915050565b600080600080606085870312156112fa576112f9610fcf565b5b600085013567ffffffffffffffff81111561131857611317610fd4565b5b61132487828801611149565b94509450506020611337878288016110f8565b925050604085013567ffffffffffffffff81111561135857611357610fd4565b5b611364878288016112b2565b91505092959194509250565b6000806040838503121561138757611386610fcf565b5b6000611395858286016110f8565b92505060206113a685828601611058565b9150509250929050565b600081519050919050565b600082825260208201905092915050565b6000819050602082019050919050565b6113e581611037565b82525050565b60006113f783836113dc565b60208301905092915050565b6000602082019050919050565b600061141b826113b0565b61142581856113bb565b9350611430836113cc565b8060005b8381101561146157815161144888826113eb565b975061145383611403565b925050600181019050611434565b5085935050505092915050565b600060208201905081810360008301526114888184611410565b905092915050565b6000602082840312156114a6576114a5610fcf565b5b60006114b484828501611058565b91505092915050565b6114c681610ff9565b82525050565b6114d5816110d7565b82525050565b600081519050919050565b600082825260208201905092915050565b60005b838110156115155780820151818401526020810190506114fa565b83811115611524576000848401525b50505050565b6000611535826114db565b61153f81856114e6565b935061154f8185602086016114f7565b611558816111a4565b840191505092915050565b600060808201905061157860008301876114bd565b61158560208301866114cc565b61159260408301856110ad565b81810360608301526115a4818461152a565b905095945050505050565b60006020820190506115c460008301846114bd565b92915050565b600081519050919050565b600082825260208201905092915050565b6000819050602082019050919050565b6115ff81610ff9565b82525050565b600081519050919050565b600082825260208201905092915050565b6000819050602082019050919050565b61163a816110d7565b82525050565b600061164c8383611631565b60208301905092915050565b6000602082019050919050565b600061167082611605565b61167a8185611610565b935061168583611621565b8060005b838110156116b657815161169d8882611640565b97506116a883611658565b925050600181019050611689565b5085935050505092915050565b600082825260208201905092915050565b60006116df826114db565b6116e981856116c3565b93506116f98185602086016114f7565b611702816111a4565b840191505092915050565b600060a08301600083015161172560008601826115f6565b506020830151848203602086015261173d8282611665565b91505060408301516117526040860182611631565b50606083015161176560608601826113dc565b506080830151848203608086015261177d82826116d4565b9150508091505092915050565b6000611796838361170d565b905092915050565b6000602082019050919050565b60006117b6826115ca565b6117c081856115d5565b9350836020820285016117d2856115e6565b8060005b8581101561180e57848403895281516117ef858261178a565b94506117fa8361179e565b925060208a019950506001810190506117d6565b50829750879550505050505092915050565b6000602082019050818103600083015261183a81846117ab565b905092915050565b60006020828403121561185857611857610fcf565b5b600061186684828501611022565b91505092915050565b600060208201905061188460008301846114cc565b92915050565b600060608201905061189f60008301866114bd565b6118ac60208301856114cc565b6118b960408301846114cc565b949350505050565b7f4e487b7100000000000000000000000000000000000000000000000000000000600052601160045260246000fd5b60006118fb82611037565b915061190683611037565b925082821015611919576119186118c1565b5b828203905092915050565b7f4e487b7100000000000000000000000000000000000000000000000000000000600052603260045260246000fd5b600061195e82611037565b91507fffffffffffffffffffffffffffffffffffffffffffffffffffffffffffffffff821415611991576119906118c1565b5b600182019050919050565b600082825260208201905092915050565b600080fd5b60006119be838561199c565b93507f07ffffffffffffffffffffffffffffffffffffffffffffffffffffffffffffff8311156119f1576119f06119ad565b5b602083029250611a02838584611261565b82840190509392505050565b600060a082019050611a2360008301896110ad565b611a3060208301886114bd565b8181036040830152611a438186886119b2565b9050611a5260608301856114cc565b8181036080830152611a64818461152a565b9050979650505050505050565b600082825260208201905092915050565b7f4f776e61626c653a2063616c6c6572206973206e6f7420746865206f776e6572600082015250565b6000611ab8602083611a71565b9150611ac382611a82565b602082019050919050565b60006020820190508181036000830152611ae781611aab565b9050919050565b7f4e487b7100000000000000000000000000000000000000000000000000000000600052602260045260246000fd5b60006002820490506001821680611b3557607f821691505b60208210811415611b4957611b48611aee565b5b50919050565b600081905092915050565b50565b6000611b6a600083611b4f565b9150611b7582611b5a565b600082019050919050565b6000611b8b82611b5d565b9150819050919050565b6000606082019050611baa60008301866110ad565b611bb760208301856114bd565b611bc460408301846110ad565b949350505050565b7f4f776e61626c653a206e6577206f776e657220697320746865207a65726f206160008201527f6464726573730000000000000000000000000000000000000000000000000000602082015250565b6000611c28602683611a71565b9150611c3382611bcc565b604082019050919050565b60006020820190508181036000830152611c5781611c1b565b905091905056fea2646970667358221220a9dc63aae58dc54fb38392e9bced022ecdfe31cd932b9be17357b20804ffc15064736f6c634300080b0033",
    "linkReferences": {},
    "deployedLinkReferences": {}
}